:1005F4004D6F76696E6720746F2000436F6D706F66
:100604006E656E7473204C69737400313A373430FC
:100614003020323A3734303220333A4D5558003492
:100624003A3734303420353A3734383620363A378E
:10063400343100373A3734383320383A34303531AE
:1006440020004E6F206F6620436F6D706F6E656E75
:1006540074733A00373A3734383320383A34303503
:100664003120393A44414D00312D2D3E2049535318
:10067400554500322D2D3E2052455455524E2020D2
:10068400443A45584954005468616E6B20796F753B
:100694002E2E004175746F6D6174696300436F6D34
:1006A400706F6E656E740044697370656E73657205
:1006B400005363616E207468652063617264210075
:1006C40043617264206465746563746564210054D5
:1006D40061626C65206E6F2031005461626C65202C
:1006E4006E6F2032005461626C65206E6F2033009F
:1006F4005461626C65206E6F2034005461626C65D5
:10070400206E6F2035004C41422055534552003134
:100714002D2D3E44657461696C7300322D2D3E436A
:100724006C65617200332D2D3E44616D61676564B3
:1007340000456E746572207461626C65206E6F3A58
:1007440000373430303A00373430323A004D55589F
:100754003A00373430343A00373438363A003734D4
:10076400313A00373438333A00343035313A0043C3
:100774006C656172696E672E2E2E00496E76616C0F
:10078400696420436172642100354130303144464C
:1007940042313941353541303031453137413446C4
:1007A40037354130303144433334414345354130AA
:1007B40030314531454330394135413030314530B0
:1007C40032363832453541303031453332363431C2
:0107D40032F2
:04154F000214000082
:04146A007F017E0080
:10146E00E4FDFCC3ED9FEC9E5015E4FBFA0BBB00B4
:10147E00010ABA04F8BBFBF50DBD00010C80E42295
:10134A008F4FE54F75F06484F55060062430FF1224
:10135A0014D5E54F75F00A84F55075F00A8485F0C6
:10136A0050E5502430FF1214D5E54F75F00A8485F4
:0A137A00F050E5502430FF0214D5B6
:10148E007F3812150B7F147E0012146E7F0C12150E
:10149E000B7F147E0012146E7F8012150B7F147E4C
:0414AE000002146EB6
:10150B008F90D2A1C2A07F047E0012146EC2A122C2
:0514D000E5182430FFC7
:1014D5008F90D2A1D2A07F047E0012146EC2A122E9
:091384001215277BFF7A0579FFA1
:10138D008B4A8A4B894CE4F54DF54EAB4AAA4BA9D5
:10139D004C854E82854D8312130BFF60101214D5B0
:0E13AD007401254CF54CE4354BF54B80DE22E7
:0C12CA00E5192430FF1214D5E4FD7F026A
:1012D6008F48A905E548B40107E92480FF12150BDC
:1012E600E548B40207E924C0FF12150BE548B4032C
:1012F60007E92494FF12150BE548B40407E924D442
:05130600FF12150B228F
:0A1527007F0112150B7F8002150BE7
:100EB800D284D285D286C280D281D282D283208443
:100EC8000912146A3084FD7F312220850912146AC0
:100ED8003085FD7F322220860912146A3086FD7F14
:100EE800332220870912146A3087FD7F4122D2807D
:100EF800C281D282D28320840912146A3084FD7F91
:100F0800342220850912146A3085FD7F3522208617
:100F18000912146A3086FD7F362220870912146A66
:100F28003087FD7F4222D280D281C282D283208440
:100F38000912146A3084FD7F372220850912146A49
:100F48003085FD7F382220860912146A3086FD7F9D
:100F5800392220870912146A3087FD7F4322D28004
:100F6800D281D282C28320840912146A3084FD7F20
:100F78002A2220850912146A3085FD7F30222086B6
:100F88000912146A3086FD7F232220870912146A09
:090F98003087FD7F44227F6E22A8
:09153100120EB8EF646E60F8229E
:0315540002000092
:07153A00D2B7D2B6C2B722FE
:07154100C2B7D2B6D2B722F7
:10141800AD07E4FCC2B674807E00A804088006CE3E
:10142800A2E713CE13D8F8FFEDFBEF5B6003D38080
:0B14380001C392B7D2B60CBC08DA2248
:0B14E5001214181214F0AF02121418B9
:0914F000C2B6D2B7D2B6C2B622D0
:07154800C2B6D2B7D2B622F1
:1014B200E4FFD2B7FED2B630B70D7480A80608801A
:0E14C20002C313D8FC4207C2B60EBE08E822D1
:1013BB00E54425E0242CF808E6FDE54275F00AA487
:0313CB002544FFB7
:1013CE00AA05A90712153A7FA01214181214F0AF2D
:0E13DE00011214E51215417F087E0002146E04
:09144300E54275F00AA42544FFFE
:10144C00AA0712153A7FA01214E512153A7FA112C1
:0E145C0014181214F01214B2121548021541A1
:100979008E418F42E4F543F544AF44EF25E0242C42
:10098900F8E6FC08C3EC64809480500AEF25E02463
:100999002CF8E4F608F60544E544700205436408BA
:1009A900454370D5E5416003020B02E54214B40AE0
:1009B900004003020B029009CD75F003A4C58325FD
:1009C900F0C583730209EB020A07020A23020A3FF0
:1009D900020A5B020A77020A93020AAF020ACB02F1
:1009E9000AE7E4F543F5441213BB0544E5447002F4
:1009F9000543C39408E5436480948040EA22E4F502
:100A090043F5441213BB0544E54470020543C394FE
:100A190008E5436480948040EA22E4F543F54412F2
:100A290013BB0544E54470020543C39408E54364D8
:100A390080948040EA22E4F543F5441213BB05444F
:100A4900E54470020543C39408E5436480948040FB
:100A5900EA22E4F543F5441213BB0544E544700268
:100A69000543C39408E5436480948040EA22E4F591
:100A790043F5441213BB0544E54470020543C3948E
:100A890008E5436480948040EA22E4F543F5441282
:100A990013BB0544E54470020543C39408E5436468
:100AA90080948040EA22E4F543F5441213BB0544DF
:100AB900E54470020543C39408E54364809480408B
:100AC900EA22E4F543F5441213BB0544E5447002F8
:100AD9000543C39408E5436480948040EA22E4F521
:100AE90043F5441213BB0544E54470020543C3941E
:0A0AF90008E5436480948040EA227F
:0407D5007F017E0022
:1007D9008E418F42E5416003020978E54214B40A6B
:1007E9000040030209789007FD75F003A4C583252D
:1007F900F0C5837302081B02083E020861020884DF
:100809000208A70208CA0208ED0209100209330208
:100819000956E4F543F54412144374182544F8A61F
:10082900070544E54470020543C39408E543648021
:10083900948040E322E4F543F544121443741825E7
:1008490044F8A6070544E54470020543C39408E546
:10085900436480948040E322E4F543F54412144351
:1008690074182544F8A6070544E54470020543C3F6
:100879009408E5436480948040E322E4F543F54419
:1008890012144374182544F8A6070544E544700278
:100899000543C39408E5436480948040E322E4F56A
:1008A90043F54412144374182544F8A6070544E592
:1008B9004470020543C39408E5436480948040E38F
:1008C90022E4F543F54412144374182544F8A607A5
:1008D9000544E54470020543C39408E543648094E4
:1008E9008040E322E4F543F5441214437418254487
:1008F900F8A6070544E54470020543C39408E54397
:100909006480948040E322E4F543F544121443746F
:10091900182544F8A6070544E54470020543C39425
:1009290008E5436480948040E322E4F543F54412EA
:10093900144374182544F8A6070544E544700205D4
:1009490043C39408E5436480948040E322E4F5437B
:10095900F54412144374182544F8A6070544E544E0
:1009690070020543C39408E5436480948040E32200
:0C151B00758920758DFD759850D28E22C8
:1014F900E4FF3098FD74082FF8A699C2980FBF0C25
:02150900F122CD
:1013EC008B418A428943E4FFAB41AA42A9438F82D5
:1013FC0075830012130BFE74082FF8E66E60057EE1
:0C140C00007F01220FBF0CE0E4FEFF2275
:1010EB007BFF7A07798D1213EC8E208F217BFF7A91
:1010FB000779991213EC8E228F237BFF7A0779A540
:10110B001213EC8E248F257BFF7A0779B11213EC27
:10111B008E268F277BFF7A0779BD1213EC8E288FD3
:10112B00297BFF7A0779C91213EC8E2A8F2BE521C5
:10113B0045206018E52345226012E5254524600C07
:10114B00E52745266006E529452870057E007F01C9
:0F115B0022E52B452A7004FE7F0222E4FEFF22CC
:1011DE008E4A8F4BD2A6D2A7900000C3E582954BC4
:1011EE00E54A6480F8E5836480985033C2A2C2A3B6
:1011FE00C2A4D2A57F047E0012146EC2A2C2A3D2D4
:10120E00A4C2A512146EC2A2D2A3C2A4C2A5121465
:10121E006ED2A2C2A3C2A4C2A512146EA380BC2217
:10122E008E4A8F4BD2A6D2A7900000C3E582954B73
:10123E00E54A6480F8E5836480985033D2A2C2A355
:10124E00C2A4C2A57F047E0012146EC2A2D2A3C293
:10125E00A4C2A512146EC2A2C2A3D2A4C2A5121415
:10126E006EC2A2C2A3C2A4D2A512146EA380BC22C7
:100FA1008F45121527AF45EF3395E0FEEF24D0FFB3
:100FB100EE34FFFEC3EF9405EE6480948040050F8C
:100FC100BF00010EC374059FF547E49EF546D3E5C6
:100FD100479400E54664809480403AAE46AF477C32
:100FE100007D051213388E488F497BFF7A0579F40D
:100FF10012138DAF451214D57FC87E0012146EAF47
:1010010049AE4812122E121531BF43FAAF49AE480C
:101011001211DE8045C3E54664809480503FAE46A0
:10102100AF477CFF7DFF1213388E468F477C007DD2
:10103100051213388E488F497BFF7A0579F4121314
:101041008DAF451214D5AF49AE481211DE121531DC
:0E105100BF43FAAF49AE4812122E12152722E5
:10116A008E418F42900000C3E5829542E54164803A
:10117A00F8E583648098505BD2A6D2A7D2A2D2A304
:10118A00C2A4C2A57F047E0012146E30B5037F018B
:10119A0022C2A2D2A3D2A4C2A57F047E0012146ED8
:1011AA0030B5037F0122C2A2C2A3D2A4D2A57F0472
:1011BA007E0012146E30B5037F0122D2A2C2A3C2EE
:1011CA00A4D2A57F047E0012146E30B5037F0122DB
:0411DA00A380942238
:100C88007514007515011215277F197E001211DEE3
:100C98001213841212D27BFF7A06790F12138DE495
:100CA800FD7F031212D67BFF7A06792312138DE497
:100CB800FD7F041212D67BFF7A06793712138D1244
:100CC80015318F45E54564447003020DA6121527BA
:100CD8007BFF7A06794612138D121531A907E9337D
:100CE80095E0FEEF24D0F547EE34FFF5461214D513
:100CF8007F647E0012146EE54524CFB4080050903E
:100D0800900D1675F003A4C58325F0C58373020DF5
:100D18002E020D3D020D4C020D5B020D6A020D798B
:100D2800020D88020D97E547252DF52DE546352C52
:100D3800F52C020C98E547252FF52FE546352EF5BD
:100D48002E020C98E5472531F531E5463530F5306A
:100D5800020C98E5472533F533E5463532F532027E
:100D68000C98E5472535F535E5463534F534020C5C
:100D780098E5472537F537E5463536F536020C98B8
:100D8800E5472539F539E5463538F538020C98E553
:0F0D980047253BF53BE546353AF53A020C9822E4
:100DA7001213841212D27BFF7A06790F12138DE485
:100DB700FD7F031212D67BFF7A06792312138DE487
:100DC700FD7F041212D67BFF7A06793712138D1234
:100DD70015318F421215277BFF7A06794612138D3C
:100DE700121531EFFD3395E0FCED24D0F544EC34DA
:100DF700FFF5431214D57F647E0012146EE542247A
:100E0700CFB408004003020EAC900E1E75F003A489
:100E1700C58325F0C58373020E36020E45020E54B4
:100E2700020E63020E72020E81020E90020E9F7E68
:100E370000E5442518F52DEE3543F52C80677E0037
:100E4700E5442519F52FEE3543F52E80587E00E54C
:100E570044251AF531EE3543F53080497E00E544E7
:100E6700251BF533EE3543F532803A7E00E5442500
:100E77001CF535EE3543F534802B7E00E544251D02
:100E8700F537EE3543F536801C7E00E544251EF523
:100E970039EE3543F538800D7E00E544251FF53BD7
:100EA700EE3543F53A7FC87E0012146EAF42020F4B
:010EB700A199
:100B03001213841212D27BFF7A06790F12138DE42B
:100B1300FD7F031212D67BFF7A06792312138DE42D
:100B2300FD7F041212D67BFF7A06795812138D12B9
:100B330015318F42E542B4390A120C887F197E00C1
:100B430002122E1215277BFF7A06794612138D1295
:100B53001531EFFD3395E0FCED24D0F544EC34FF83
:100B6300F5431214D57F647E0012146EE54224CF40
:100B7300B408004003020C7B900B8975F003A4C5F5
:100B83008325F0C58373020BA1020BBF020BDD02A9
:100B93000BFB020C15020C2F020C49020C63C3E57C
:100BA300189544F52DE49543F52CC3648094804057
:100BB30003020C7BE4F52CF52D020C7BC3E51995A0
:100BC30044F52FE49543F52EC364809480400302DB
:100BD3000C7BE4F52EF52F020C7BC3E51A9544F547
:100BE30031E49543F530C3648094804003020C7B69
:100BF300E4F530F531020C7BC3E51B9544F533E492
:100C03009543F532C364809480506DE4F532F53337
:100C13008066C3E51C9544F535E49543F534C36418
:100C23008094805053E4F534F535804CC3E51D952D
:100C330044F537E49543F536C3648094805039E432
:100C4300F536F5378032C3E51E9544F539E495430F
:100C5300F538C364809480501FE4F538F539801863
:100C6300C3E51F9544F53BE49543F53AC36480948B
:100C7300805005E4F53AF53B7FC87E0012146EAF51
:050C830042120FA12246
:10127E007D017F031212D67BFF7A06796C12138DD5
:10128E007D017F041212D67BFF7A06797712138DB9
:10129E001215318F41E541B43103020DA7E541B47A
:1012AE003203020B031215277BFF7A06798B12137A
:0C12BE008D7F647E0012146E1215542205
:10000300D2B512148E1215277D057F011212D67BED
:10001300FF7A06799712138D7D057F021212D67B24
:10002300FF7A0679A112138D7D057F031212D67B09
:10003300FF7A0679AB12138D7FC87E0012146E12FD
:1000430015271215277F647E0012116AEF4E60F5A3
:100053007BFF7A0679B512138D12151B1214F91250
:1000630012D2E4F53E7408253EF8E6FF1214D505D6
:100073003EE53EC3940C40ED7F2C7E0112146E12BC
:1000830010EB8E3C8F3DE53D6401453C600302036C
:10009300651215277D037F011212D67BFF7A06793D
:1000A300C412138D7D057F021212D6E51224CE7081
:1000B300030202E324F9700302025D24F6700302D3
:1000C30001D724FD7003020151240560030200459A
:1000D3007BFF7A0679D312138D1207D512127EE5B0
:1000E300156401451470557F06FE1209791207D570
:1000F300E4F53E7418253EF8E6FFE53E25E0242CA2
:10010300F8E6FC08E6FDC3EF9DFFE49CFEE53E2513
:10011300E0242CF8A60608A607E53E25E0242CF8E3
:10012300E6FEC3EE64809480500BE53E25E0242C6C
:10013300F8E4F608F6053EE53EB408B71215277F46
:10014300017E00120979E4F514F5150200D37BFF53
:100153007A0679DE12138D7F027E001207D91212FE
:100163007EE5156401451470597F07FE1209797FF6
:10017300027E001207D9E4F53E7418253EF8E6FF27
:10018300E53E25E0242CF8E6FC08E6FDC3EF9DFFE1
:10019300E49CFEE53E25E0242CF8A60608A607E528
:1001A3003E25E0242CF8E6FEC3EE64809480500BD9
:1001B300E53E25E0242CF8E4F608F6053EE53EB4DA
:1001C30008B71215277F027E00120979E4F514F5AA
:1001D300150201517BFF7A0679E912138D7F037EA5
:1001E300001207D912127EE5156401451470597F78
:1001F30008FE1209797F037E001207D9E4F53E74E5
:1002030018253EF8E6FFE53E25E0242CF8E6FC0839
:10021300E6FDC3EF9DFFE49CFEE53E25E0242CF8BC
:10022300A60608A607E53E25E0242CF8E6FEC3EE65
:1002330064809480500BE53E25E0242CF8E4F60816
:10024300F6053EE53EB408B71215277F037E00127C
:100253000979E4F514F5150201D77BFF7A0679F4E1
:1002630012138D7F047E001207D912127EE51564E6
:1002730001451470597F09FE1209797F047E00122B
:1002830007D9E4F53E7418253EF8E6FFE53E25E080
:10029300242CF8E6FC08E6FDC3EF9DFFE49CFEE595
:1002A3003E25E0242CF8A60608A607E53E25E02413
:1002B3002CF8E6FEC3EE64809480500BE53E25E007
:1002C300242CF8E4F608F6053EE53EB408B712150B
:1002D300277F047E00120979E4F514F51502025D07
:1002E3007BFF7A0679FF12138D7F057E001207D9F3
:1002F30012127EE5156401451470557F0AFE12093A
:10030300791207D5E4F53E7418253EF8E6FFE53E7D
:1003130025E0242CF8E6FC08E6FDC3EF9DFFE49CF2
:10032300FEE53E25E0242CF8A60608A607E53E25B3
:10033300E0242CF8E6FEC3EE64809480500BE53E87
:1003430025E0242CF8E4F608F6053EE53EB408B7AC
:100353001215277F057E00120979E4F514F51502BD
:1003630002E3E53D6402453C60030205E5121527FF
:100373001215277BFF7A07790A12138D1212D27B8B
:10038300FF7A07791312138DE4FD7F031212D67BD4
:10039300FF7A07791F12138DE4FD7F041212D67BB7
:1003A300FF7A07792912138D1215318F3FE53F64C8
:1003B300447003020045E53F643160030204B61252
:1003C30015277BFF7A07793512138D1215318F406C
:1003D300E54024CE601114601214601314601424D9
:1003E3000470177F01800E7F02800A7F0380067FDF
:1003F3000480027F057E001207D9121527E4FD7FD2
:10040300011212D67BFF7A07794512138D1214D08D
:100413007D097F011212D67BFF7A07794B12138D68
:100423001212CA7BFF7A07795112138DE51A243011
:10043300FF1214D57D097F021212D67BFF7A07794A
:100443005612138DE51B2430FF1214D5E4FD7F03F0
:100453001212D67BFF7A07795C12138DE51C2430C8
:10046300FF1214D57D097F031212D67BFF7A077919
:100473006212138DE51D2430FF1214D5E4FD7F04B1
:100483001212D67BFF7A07796712138DE51E24308B
:10049300FF1214D57D097F041212D67BFF7A0779E8
:1004A3006D12138DE51F2430FF1214D57F587E0281
:1004B30012146EE53F643270291215277BFF7A0709
:1004C300797312138DE4F53EE4FDAF3E1213CE05AE
:1004D3003EE53EC3949640F07F647E0012146E1294
:1004E3001527E53F643360030203731215277BFF6F
:1004F3007A07793512138D1215318F40E54024CEDA
:100503006011146012146013146014240470177FB4
:1005130006800E7F07800A7F0880067F0980027F9E
:100523000A7E001207D9121527E4FD7F011212D6A5
:100533007BFF7A07794512138D1214D07D097F0151
:100543001212D67BFF7A07794B12138D1212CA7BD4
:10055300FF7A07795112138DE51A2430FF1214D54F
:100563007D097F021212D67BFF7A07795612138D0B
:10057300E51B2430FF1214D5E4FD7F031212D67B52
:10058300FF7A07795C12138DE51C2430FF1214D512
:100593007D097F031212D67BFF7A07796212138DCE
:1005A300E51D2430FF1214D5E4FD7F041212D67B1F
:1005B300FF7A07796712138DE51E2430FF1214D5D5
:1005C3007D097F041212D67BFF7A07796D12138D92
:1005D300E51F2430FF1214D57F587E0212146E02D9
:1005E30003731215277BFF7A07797F12138D02009D
:0105F30045C2
:0300000002105F8C
:0C105F00787FE4F6D8FD7581500210A6E1
:10130B00BB010CE58229F582E5833AF583E0225097
:10131B0006E92582F8E622BBFE06E92582F8E222E1
:0D132B00E58229F582E5833AF583E49322FB
:10133800EF8DF0A4A8F0CF8CF0A428CE8DF0A42EC9
:02134800FE2283
:10106B00020003E493A3F8E493A34003F68001F298
:10107B0008DFF48029E493A3F85407240CC8C33386
:10108B00C4540F4420C8834004F456800146F6DF55
:10109B00E4800B010204081020408090154FE47E81
:1010AB00019360BCA3FF543F30E509541FFEE4934A
:1010BB00A360010ECF54C025E060A840B8E493A311
:1010CB00FAE493A3F8E493A3C8C582C8CAC583CA3C
:1010DB00F0A3C8C582C8CAC583CADFE9DEE780BEF4
:011553000097
:00000001FF
