:1004920057726974696E67203000354130303144DB
:1004A20046423139413535413030314531374134B9
:1004B2004637354130303144433334414345354189
:1004C20030303145314543303941354130303145A5
:1004D20030323638324535413030314533323634B8
:0204E2003132B5
:0607C700011800011BFFF8
:07079200D2B7120799D2B69D
:06079900E4FF0FBF14FC99
:01079F002237
:10073B00D2B6120799D2B7120799C2B7120799C24C
:04074B00B602079952
:0E06BF001205841205F5120610AE071207BFD1
:0D06CD00C2B7120794D2B7120799C2B62225
:02058400AD07C1
:10058600E4FCC2B612079974807E00A804088006AF
:10059600CEA2E713CE13D8F8FFEDFBEF5B6004D2D3
:0C05A600B78002C2B71207940CBC08D644
:0105B2002226
:10061000E4FEFDD2B612079930B70D7480A8050824
:100620008002C313D8FC4206120799C2B61207997A
:060630000DBD08DFAF065E
:0106360022A1
:1005E2001205841205F5AF011205841205F5AF025A
:0305F2001205846B
:1005F500120799C2B6120799120792A2B7E433FE01
:0A060500120799C2B6120799AF065A
:01060F0022C8
:0807BF00120792C2B60207996D
:10076100AE07AA03A90512073BAF061205E202066E
:01077100CDBA
:0406A000AA07A905F7
:1006A40012073B1205F0AF011205841205F512077B
:0A06B4003BEA4401FF1206BFAF0647
:0106BE002219
:1005B300E4FD7FD01206A0AB071206DA8F3A533A56
:1005C3007F7F057E001206F3AF3A12070CAB07E4F8
:0F05D300FD7FD01207617B807D077FD00207611B
:10020A008F258D268B27532B7F53293FAF2B120720
:10021A000C8F2BAF2A12070C8F2AAF2912070C8FCB
:10022A0029AF2812070C8F28AF2712070C8F27AF88
:10023A002612070C8F26AF2512070C8F25AB2BE44D
:10024A00FD7FD0120761AB2A7D017FD0120761AB17
:10025A00297D027FD0120761AB287D037FD0120768
:10026A0061AB257D047FD0120761AB267D057FD067
:10027A00120761AB277D067FD01207617B117D07CC
:05028A007FD0020761B6
:10028F007D067FD01206A08F147D057FD01206A0A9
:10029F008F197D047FD01206A08F167D037FD01299
:1002AF0006A08F1A7D027FD01206A08F1C7D017FC2
:1002BF00D01206A08F17E4FD7FD01206A08F155322
:1002CF001A7F53163F53191F531C3F53177F531554
:1002DF007FAF161206DA8F16AF191206DA8F19AF23
:1002EF00141206DA8F14AF1A1206DA8F1AAF1C1215
:1002FF0006DA8F1CAF171206DA8F17AF151206DA50
:03030F008F152225
:10070C00E4FEC3EF6480948A400A74F62FFF7410E1
:07071C002EFE80EEEF2EFF20
:0107230022B3
:1006DA00AE07EEA2E713FE530678EEA2E713A2E7EF
:0806EA00132EFEEF540F2EFF4A
:0106F20022E5
:1006F300EF25E0FFEE33FEE4FDFCC3ED9FEC9E50DF
:08070300070DBD00010C80F29E
:01070B0022CB
:08043E008F208E1F8D1E8C1D06
:10044600E47B0EFAF9F81201198F208E1F8D1E8C8F
:100456001DE4F524F523F522F521AF20AE1FAD1ED0
:10046600AC1DAB24AA23A922A821C3120168501BE4
:10047600E4FAF9F8E5242401F524EA3523F523E91D
:0B0486003522F522E83521F52180CF5A
:010491002248
:10067F008F2DA903AA0512073B7FA012058412052F
:10068F00F5AF2D1205EAAF011205841205F502062A
:01069F00CD8D
:04072400AA05A90772
:1007280012073B7FA01205E212073B7FA11206BF0A
:02073800AF060A
:01073A00229C
:0C07A000758920758DFD759850D28E2251
:040312008E328F3365
:10031600D2A6D2A7E4F534F535C3E5359533E532F3
:100326006480F8E5346480985046C2A2C2A3C2A491
:10033600D2A57F047E0012063BC2A2C2A3D2A4C2EB
:10034600A57F047E0012063BC2A2D2A3C2A4C2A508
:100356007F047E0012063BD2A2C2A3C2A4C2A57F1E
:10036600047E0012063B0535E53570AD053480A9DF
:010376002264
:040377008E368F37F8
:10037B00D2A6D2A7E4F538F539C3E5399537E5367A
:10038B006480F8E5386480985046D2A2C2A3C2A418
:10039B00C2A57F057E0012063BC2A2D2A3C2A4C295
:1003AB00A57F057E0012063BC2A2C2A3D2A4C2A5A2
:1003BB007F057E0012063BC2A2C2A3C2A4D2A57FB8
:1003CB00057E0012063B0539E53970AD053880A96D
:0103DB0022FF
:10074F00E4FF3098FD74082FF8A699C2980FBF0CDC
:01075F00F1A8
:010760002276
:040637007F017E00C1
:10063B00E4FDFCC3ED9FEC9E5015E4FBFA0BBB00F5
:0F064B00010ABA04F8BBFBF50DBD00010C80E4F9
:01065A00227D
:0204E4008F2D5A
:1004E600E52D75F06484F52E60062430FF12078230
:1004F600E52D75F00A84F52E75F00A8485F02EE553
:100506002E2430FF120782E52D75F00A8485F02E21
:08051600E52E2430FF020782EC
:10065B007F381207727F147E0012063B7F0C120745
:10066B00727F147E0012063B7F801207727F147E0E
:04067B000002063B38
:100772008F90D2A1C2A07F0A7E0012063BC2A122A4
:100782008F90D2A1D2A07F0A7E0012063BC2A12284
:060553008B2D8A2E892F7A
:10055900E4F530F531AB2DAA2EA92F8531828530EE
:10056900831200ECFF60131207821206377401250B
:0A0579002FF52FE4352EF52E80DB60
:010583002255
:10051E008F2DA905E52DB40107E92480FF1207727E
:10052E00E52DB40207E924C0FF120772E52DB403CE
:10053E0007E92494FF120772E52DB40407E924D4C9
:05054E00FF12077222FC
:0A07AC007F011207727F80020772BE
:10000300D284D285D286C280D281D282D283208406
:10001300091206373084FD7F312220850912063705
:100023003085FD7F32222086091206373086FD7F18
:1000330033222087091206373087FD7F4122D28081
:10004300C281D282D2832084091206373084FD7F95
:1000530034222085091206373085FD7F352220861C
:10006300091206373086FD7F3622208709120637AC
:100073003087FD7F4222D280D281C282D283208404
:10008300091206373084FD7F37222085091206378F
:100093003085FD7F38222086091206373086FD7FA2
:1000A30039222087091206373087FD7F4322D28009
:1000B300D281D282C2832084091206373084FD7F25
:1000C3002A222085091206373085FD7F30222086BB
:1000D300091206373086FD7F23222087091206374F
:0800E3003087FD7F44227F6E8F
:0100EB0022F2
:0807B600120003EF646E60F80D
:0107BE002218
:0307CE0002000026
:1003DC0012065B1207ACE4FD7F0112051E7BFF7A4F
:1003EC00047992120553E51B7003D38001C34014AA
:1003FC00E4FBAD1BAF1812067F151B7F0A7E0012A3
:10040C00063B80E27FC87E0012063B1207AC751BD0
:10041C00FFE51B7003D38001C34015AD1BAF181251
:10042C0007248F2C1204E47F0A7E0012063B80E125
:02043C0080FE40
:0300000002017E7C
:0C017E00787FE4F6D8FD75813A0201C5D7
:1000EC00BB010CE58229F582E5833AF583E02250C9
:1000FC0006E92582F8E622BBFE06E92582F8E22213
:0D010C00E58229F582E5833AF583E493222C
:10011900E88FF0A4CC8BF0A42CFCE98EF0A42CFC85
:100129008AF0EDA42CFCEA8EF0A4CDA8F08BF0A403
:100139002DCC3825F0FDE98FF0A42CCD35F0FCEB62
:100149008EF0A4FEA9F0EB8FF0A4CFC5F02ECD3927
:0F015900FEE43CFCEAA42DCE35F0FDE43CFC2294
:10016800EB9FF5F0EA9E42F0E99D42F0EC6480C80E
:0601780064809845F022AE
:10018A000203DCE493A3F8E493A34003F68001F2AC
:10019A0008DFF48029E493A3F85407240CC8C33376
:1001AA00C4540F4420C8834004F456800146F6DF45
:1001BA00E4800B01020408102040809007C7E47E07
:1001CA00019360BCA3FF543F30E509541FFEE4933A
:1001DA00A360010ECF54C025E060A840B8E493A301
:1001EA00FAE493A3F8E493A3C8C582C8CAC583CA2C
:1001FA00F0A3C8C582C8CAC583CADFE9DEE780BEE4
:0107CD00002B
:00000001FF
