:10035000656570726F6D20646174613A3520696EF5
:1003600020303038306800526561643D00354130DE
:1003700030314446423139413535413030314531F3
:1003800037413446373541303031444333344143CB
:1003900045354130303145314543303941354130C3
:1003A00030314530323638324535413030314533E1
:0503B000323634313249
:0706EF00D2B71206F6D2B6E5
:0606F600E4FF0FBF14FC3D
:0106FC0022DB
:10069800D2B61206F6D2B71206F6C2B71206F6C2DC
:0406A800B60206F69A
:0E061C001204E112055212056DAE07120728F6
:0D062A00C2B71206F1D2B71206F6C2B62210
:0204E100AD0765
:1004E300E4FCC2B61206F674807E00A804088006F7
:1004F300CEA2E713CE13D8F8FFEDFBEF5B6004D277
:0C050300B78002C2B71206F10CBC08D68B
:01050F0022C9
:10056D00E4FEFDD2B61206F630B70D7480A805086C
:10057D008002C313D8FC42061206F6C2B61206F666
:06058D000DBD08DFAF0602
:010593002245
:10053F001204E1120552AF011204E1120552AF028B
:03054F001204E1B2
:100552001206F6C2B61206F61206EFA2B7E433FE90
:0A0562001206F6C2B61206F6AF0646
:01056C00226C
:080728001206EFC2B60206F64C
:1006BE00AE07AA03A905120698AF0612053F020659
:0106CE002A01
:0405FD00AA07A9059B
:1006010012069812054DAF011204E11205521206AD
:0A06110098EA4401FF12061CAF0630
:01061B0022BC
:10051000E4FD7FD01205FDAB071206378F3A533A40
:100520007F7F057E00120650AF3A120669AB07E4E2
:0F053000FD7FD01206BE7B807D077FD00206BE06
:10017E008F238D248B2553297F53273FAF291206BA
:10018E00698F29AF281206698F28AF271206698F4B
:10019E0027AF261206698F26AF251206698F25AF67
:1001AE00241206698F24AF231206698F23AB29E42C
:1001BE00FD7FD01206BEAB287D017FD01206BEABEE
:1001CE00277D027FD01206BEAB267D037FD012069E
:1001DE00BEAB237D047FD01206BEAB247D057FD03F
:1001EE001206BEAB257D067FD01206BE7B117D07A3
:0501FE007FD00206BEE7
:100203007D067FD01205FD8F147D057FD01205FD7D
:100213008F187D047FD01205FD8F167D037FD012CA
:1002230005FD8F197D027FD01205FD8F1A7D017F99
:10023300D01205FD8F17E4FD7FD01205FD8F1553F6
:10024300197F53163F53181F531A3F53177F5315E4
:100253007FAF161206378F16AF181206378F18AFF7
:10026300141206378F14AF191206378F19AF1A12EB
:1002730006378F1AAF171206378F17AF15120637C7
:030283008F1522B2
:10066900E4FEC3EF6480948A400A74F62FFF741085
:070679002EFE80EEEF2EFFC4
:010680002257
:10063700AE07EEA2E713FE530678EEA2E713A2E792
:08064700132EFEEF540F2EFFED
:01064F002288
:10065000EF25E0FFEE33FEE4FDFCC3ED9FEC9E5082
:08066000070DBD00010C80F242
:01066800226F
:0803B5008F1E8E1D8D1C8C1B98
:1003BD00E47B0EFAF9F81201198F1E8E1D8D1C8C1F
:1003CD001BE4F522F521F520F51FAF1EAE1DAD1C6A
:1003DD00AC1BAB22AA21A920A81FC3120168501B78
:1003ED00E4FAF9F8E5222401F522EA3521F521E9AF
:0B03FD003520F520E8351FF51F80CFEC
:0104080022D1
:1005DC008F2BA903AA051206987FA01204E112051D
:1005EC0052AF2B120547AF011204E112055202065D
:0105FC002AD4
:04068100AA05A90716
:100685001206987FA112053F1206987FA112061C3B
:02069500AF06AE
:010697002240
:0C06FD00758920758DFD759850D28E22F5
:040286008E308F31F6
:10028A00D2A6D2A7E4F532F533C3E5339531E5308A
:10029A006480F8E5326480985046C2A2C2A3C2A420
:1002AA00D2A57F047E00120598C2A2C2A3D2A4C21C
:1002BA00A57F047E00120598C2A2D2A3C2A4C2A539
:1002CA007F047E00120598D2A2C2A3C2A4C2A57F4F
:1002DA00047E001205980533E53370AD053280A916
:0102EA0022F1
:0402EB008E348F3589
:1002EF00D2A6D2A7E4F536F537C3E5379535E53411
:1002FF006480F8E5366480985046D2A2C2A3C2A4A7
:10030F00C2A57F057E00120598C2A2D2A3C2A4C2C5
:10031F00A57F057E00120598C2A2C2A3D2A4C2A5D2
:10032F007F057E00120598C2A2C2A3C2A4D2A57FE8
:10033F00057E001205980537E53770AD053680A9A3
:01034F00228B
:1006AC00E4FF3098FD74082FF8A699C2980FBF0C80
:0106BC00F14C
:0106BD00221A
:040594007F017E0065
:10059800E4FDFCC3ED9FEC9E5015E4FBFA0BBB0099
:0F05A800010ABA04F8BBFBF50DBD00010C80E49D
:0105B7002221
:020409008F382A
:10040B00E53875F06484F53960062430FF1206DF99
:10041B00E53875F00A84F53975F00A8485F039E50D
:10042B00392430FF1206DFE53875F00A8485F03980
:08043B00E5392430FF0206DF61
:1005B8007F381206CF7F147E001205987F0C120632
:1005C800CF7F147E001205987F801206CF7F147E9D
:0405D8000002059880
:1006CF008F90D2A1C2A07F0A7E00120598C2A122EC
:1006DF008F90D2A1D2A07F0A7E00120598C2A122CC
:0604B0008B2B8A2C892D24
:1004B600E4F52EF52FAB2BAA2CA92D852F82852EA0
:1004C600831200ECFF60131206DF120594740125F7
:0A04D6002DF52DE4352CF52C80DB0C
:0104E00022F9
:10047B008F2BA905E52BB40107E92480FF1206CFCA
:10048B00E52BB40207E924C0FF1206CFE52BB4031A
:10049B0007E92494FF1206CFE52BB40407E924D413
:0504AB00FF1206CF2244
:0A0715007F011206CF7F800206CF9D
:10000300D284D285D286C280D281D282D283208406
:10001300091205943084FD7F31222085091205944D
:100023003085FD7F32222086091205943086FD7FBC
:1000330033222087091205943087FD7F4122D28025
:10004300C281D282D2832084091205943084FD7F39
:1000530034222085091205943085FD7F35222086C0
:10006300091205943086FD7F3622208709120594F4
:100073003087FD7F4222D280D281C282D283208404
:10008300091205943084FD7F3722208509120594D7
:100093003085FD7F38222086091205943086FD7F46
:1000A30039222087091205943087FD7F4322D280AD
:1000B300D281D282C2832084091205943084FD7FC9
:1000C3002A222085091205943085FD7F302220865F
:1000D300091205943086FD7F232220870912059497
:0800E3003087FD7F44227F6E8F
:0100EB0022F2
:08071F00120003EF646E60F8A4
:0107270022AF
:03073000020000C4
:100443001205B87F5012047B7B417D80E4FF1205C7
:10045300DC7F647E001205987D80E4FF1206818FA5
:100463002AE4FD7F0212047B7BFF7A03796712047F
:08047300B0AF2A1206DF80FE83
:03000000020709EB
:0C070900787FE4F6D8FD75813A020443C5
:1000EC00BB010CE58229F582E5833AF583E02250C9
:1000FC0006E92582F8E622BBFE06E92582F8E22213
:0D010C00E58229F582E5833AF583E493222C
:10011900E88FF0A4CC8BF0A42CFCE98EF0A42CFC85
:100129008AF0EDA42CFCEA8EF0A4CDA8F08BF0A403
:100139002DCC3825F0FDE98FF0A42CCD35F0FCEB62
:100149008EF0A4FEA9F0EB8FF0A4CFC5F02ECD3927
:0F015900FEE43CFCEAA42DCE35F0FDE43CFC2294
:10016800EB9FF5F0EA9E42F0E99D42F0EC6480C80E
:0601780064809845F022AE
:00000001FF
